{
    "_format": "hh-sol-artifact-1",
    "contractName": "WavePortal",
    "sourceName": "contracts/WavePortal.sol",
    "abi": [
        {
            "inputs": [],
            "stateMutability": "payable",
            "type": "constructor"
        },
        {
            "anonymous": false,
            "inputs": [
                {
                    "indexed": true,
                    "internalType": "address",
                    "name": "from",
                    "type": "address"
                },
                {
                    "indexed": false,
                    "internalType": "uint256",
                    "name": "timestamp",
                    "type": "uint256"
                },
                {
                    "indexed": false,
                    "internalType": "string",
                    "name": "message",
                    "type": "string"
                }
            ],
            "name": "NewWave",
            "type": "event"
        },
        {
            "inputs": [],
            "name": "getAllWaves",
            "outputs": [
                {
                    "components": [
                        {
                            "internalType": "address",
                            "name": "waver",
                            "type": "address"
                        },
                        {
                            "internalType": "string",
                            "name": "message",
                            "type": "string"
                        },
                        {
                            "internalType": "uint256",
                            "name": "timestamp",
                            "type": "uint256"
                        }
                    ],
                    "internalType": "struct WavePortal.Wave[]",
                    "name": "",
                    "type": "tuple[]"
                }
            ],
            "stateMutability": "view",
            "type": "function"
        },
        {
            "inputs": [],
            "name": "getTotalWaves",
            "outputs": [
                {
                    "internalType": "uint256",
                    "name": "",
                    "type": "uint256"
                }
            ],
            "stateMutability": "view",
            "type": "function"
        },
        {
            "inputs": [
                {
                    "internalType": "string",
                    "name": "_message",
                    "type": "string"
                }
            ],
            "name": "wave",
            "outputs": [],
            "stateMutability": "nonpayable",
            "type": "function"
        },
        {
            "inputs": [
                {
                    "internalType": "address",
                    "name": "",
                    "type": "address"
                }
            ],
            "name": "wavesByAddress",
            "outputs": [
                {
                    "internalType": "uint256",
                    "name": "",
                    "type": "uint256"
                }
            ],
            "stateMutability": "view",
            "type": "function"
        }
    ],
    "bytecode": "0x60806040526200004f6040518060400160405280601981526020017f57652068617665206265656e20636f6e737472756374656421000000000000008152506200005560201b620004bf1760201c565b620001e9565b620000f5816040516024016200006c919062000162565b6040516020818303038152906040527f41304fac000000000000000000000000000000000000000000000000000000007bffffffffffffffffffffffffffffffffffffffffffffffffffffffff19166020820180517bffffffffffffffffffffffffffffffffffffffffffffffffffffffff8381831617835250505050620000f860201b60201c565b50565b60008151905060006a636f6e736f6c652e6c6f679050602083016000808483855afa5050505050565b60006200012e8262000186565b6200013a818562000191565b93506200014c818560208601620001a2565b6200015781620001d8565b840191505092915050565b600060208201905081810360008301526200017e818462000121565b905092915050565b600081519050919050565b600082825260208201905092915050565b60005b83811015620001c2578082015181840152602081019050620001a5565b83811115620001d2576000848401525b50505050565b6000601f19601f8301169050919050565b610e4d80620001f96000396000f3fe608060405234801561001057600080fd5b506004361061004c5760003560e01c8063449d46c0146100515780639a2cdc081461006d578063bd43a9081461008b578063e1da7173146100a9575b600080fd5b61006b60048036038101906100669190610769565b6100d9565b005b61007561034d565b6040516100829190610a78565b60405180910390f35b610093610356565b6040516100a091906109af565b60405180910390f35b6100c360048036038101906100be9190610740565b6104a7565b6040516100d09190610a78565b60405180910390f35b60016000808282546100eb9190610b8a565b925050819055506101326040518060400160405280601681526020017f257320776176656420772f206d657373616765202573000000000000000000008152503383610558565b600260405180606001604052803373ffffffffffffffffffffffffffffffffffffffff16815260200183815260200142815250908060018154018082558091505060019003906000526020600020906003020160009091909190915060008201518160000160006101000a81548173ffffffffffffffffffffffffffffffffffffffff021916908373ffffffffffffffffffffffffffffffffffffffff16021790555060208201518160010190805190602001906101f1929190610620565b506040820151816002015550503373ffffffffffffffffffffffffffffffffffffffff167f5f7e16dc676677766a70e9c5628aa6c54ddb8b6e5188e2ae1e1f17f1ffbea7164283604051610246929190610a93565b60405180910390a26000655af3107a400090504781111561029c576040517f08c379a000000000000000000000000000000000000000000000000000000000815260040161029390610a38565b60405180910390fd5b60003373ffffffffffffffffffffffffffffffffffffffff16826040516102c29061099a565b60006040518083038185875af1925050503d80600081146102ff576040519150601f19603f3d011682016040523d82523d6000602084013e610304565b606091505b5050905080610348576040517f08c379a000000000000000000000000000000000000000000000000000000000815260040161033f90610a58565b60405180910390fd5b505050565b60008054905090565b60606002805480602002602001604051908101604052809291908181526020016000905b8282101561049e57838290600052602060002090600302016040518060600160405290816000820160009054906101000a900473ffffffffffffffffffffffffffffffffffffffff1673ffffffffffffffffffffffffffffffffffffffff1673ffffffffffffffffffffffffffffffffffffffff16815260200160018201805461040390610c5e565b80601f016020809104026020016040519081016040528092919081815260200182805461042f90610c5e565b801561047c5780601f106104515761010080835404028352916020019161047c565b820191906000526020600020905b81548152906001019060200180831161045f57829003601f168201915b505050505081526020016002820154815250508152602001906001019061037a565b50505050905090565b60016020528060005260406000206000915090505481565b610555816040516024016104d391906109d1565b6040516020818303038152906040527f41304fac000000000000000000000000000000000000000000000000000000007bffffffffffffffffffffffffffffffffffffffffffffffffffffffff19166020820180517bffffffffffffffffffffffffffffffffffffffffffffffffffffffff83818316178352505050506105f7565b50565b6105f2838383604051602401610570939291906109f3565b6040516020818303038152906040527fe0e9ad4f000000000000000000000000000000000000000000000000000000007bffffffffffffffffffffffffffffffffffffffffffffffffffffffff19166020820180517bffffffffffffffffffffffffffffffffffffffffffffffffffffffff83818316178352505050506105f7565b505050565b60008151905060006a636f6e736f6c652e6c6f679050602083016000808483855afa5050505050565b82805461062c90610c5e565b90600052602060002090601f01602090048101928261064e5760008555610695565b82601f1061066757805160ff1916838001178555610695565b82800160010185558215610695579182015b82811115610694578251825591602001919060010190610679565b5b5090506106a291906106a6565b5090565b5b808211156106bf5760008160009055506001016106a7565b5090565b60006106d66106d184610ae8565b610ac3565b9050828152602081018484840111156106ee57600080fd5b6106f9848285610c1c565b509392505050565b60008135905061071081610e00565b92915050565b600082601f83011261072757600080fd5b81356107378482602086016106c3565b91505092915050565b60006020828403121561075257600080fd5b600061076084828501610701565b91505092915050565b60006020828403121561077b57600080fd5b600082013567ffffffffffffffff81111561079557600080fd5b6107a184828501610716565b91505092915050565b60006107b6838361092c565b905092915050565b6107c781610be0565b82525050565b6107d681610be0565b82525050565b60006107e782610b29565b6107f18185610b4c565b93508360208202850161080385610b19565b8060005b8581101561083f578484038952815161082085826107aa565b945061082b83610b3f565b925060208a01995050600181019050610807565b50829750879550505050505092915050565b600061085c82610b34565b6108668185610b68565b9350610876818560208601610c2b565b61087f81610d4e565b840191505092915050565b600061089582610b34565b61089f8185610b79565b93506108af818560208601610c2b565b6108b881610d4e565b840191505092915050565b60006108d0603483610b79565b91506108db82610d5f565b604082019050919050565b60006108f3602783610b79565b91506108fe82610dae565b604082019050919050565b6000610916600083610b5d565b915061092182610dfd565b600082019050919050565b600060608301600083015161094460008601826107be565b506020830151848203602086015261095c8282610851565b9150506040830151610971604086018261097c565b508091505092915050565b61098581610c12565b82525050565b61099481610c12565b82525050565b60006109a582610909565b9150819050919050565b600060208201905081810360008301526109c981846107dc565b905092915050565b600060208201905081810360008301526109eb818461088a565b905092915050565b60006060820190508181036000830152610a0d818661088a565b9050610a1c60208301856107cd565b8181036040830152610a2e818461088a565b9050949350505050565b60006020820190508181036000830152610a51816108c3565b9050919050565b60006020820190508181036000830152610a71816108e6565b9050919050565b6000602082019050610a8d600083018461098b565b92915050565b6000604082019050610aa8600083018561098b565b8181036020830152610aba818461088a565b90509392505050565b6000610acd610ade565b9050610ad98282610c90565b919050565b6000604051905090565b600067ffffffffffffffff821115610b0357610b02610d1f565b5b610b0c82610d4e565b9050602081019050919050565b6000819050602082019050919050565b600081519050919050565b600081519050919050565b6000602082019050919050565b600082825260208201905092915050565b600081905092915050565b600082825260208201905092915050565b600082825260208201905092915050565b6000610b9582610c12565b9150610ba083610c12565b9250827fffffffffffffffffffffffffffffffffffffffffffffffffffffffffffffffff03821115610bd557610bd4610cc1565b5b828201905092915050565b6000610beb82610bf2565b9050919050565b600073ffffffffffffffffffffffffffffffffffffffff82169050919050565b6000819050919050565b82818337600083830152505050565b60005b83811015610c49578082015181840152602081019050610c2e565b83811115610c58576000848401525b50505050565b60006002820490506001821680610c7657607f821691505b60208210811415610c8a57610c89610cf0565b5b50919050565b610c9982610d4e565b810181811067ffffffffffffffff82111715610cb857610cb7610d1f565b5b80604052505050565b7f4e487b7100000000000000000000000000000000000000000000000000000000600052601160045260246000fd5b7f4e487b7100000000000000000000000000000000000000000000000000000000600052602260045260246000fd5b7f4e487b7100000000000000000000000000000000000000000000000000000000600052604160045260246000fd5b6000601f19601f8301169050919050565b7f547279696e6720746f207769746864726177206d6f7265206d6f6e657920746860008201527f616e2074686520636f6e7472616374206861732e000000000000000000000000602082015250565b7f4661696c656420746f207769746864726177206d6f6e65792066726f6d20636f60008201527f6e74726163742e00000000000000000000000000000000000000000000000000602082015250565b50565b610e0981610be0565b8114610e1457600080fd5b5056fea2646970667358221220afaef9ad70bf23d903b677452fc2fca4b48f9b9e46c5f9191ef35441b30bbd6864736f6c63430008040033",
    "linkReferences": {},
    "deployedLinkReferences": {}
}